{
  "_format": "hh-sol-artifact-1",
  "contractName": "CropNFT",
  "sourceName": "contracts/CropNFT.sol",
  "abi": [
    {
      "inputs": [],
      "stateMutability": "nonpayable",
      "type": "constructor"
    },
    {
      "anonymous": false,
      "inputs": [
        {
          "indexed": true,
          "internalType": "address",
          "name": "owner",
          "type": "address"
        },
        {
          "indexed": true,
          "internalType": "address",
          "name": "approved",
          "type": "address"
        },
        {
          "indexed": true,
          "internalType": "uint256",
          "name": "tokenId",
          "type": "uint256"
        }
      ],
      "name": "Approval",
      "type": "event"
    },
    {
      "anonymous": false,
      "inputs": [
        {
          "indexed": true,
          "internalType": "address",
          "name": "owner",
          "type": "address"
        },
        {
          "indexed": true,
          "internalType": "address",
          "name": "operator",
          "type": "address"
        },
        {
          "indexed": false,
          "internalType": "bool",
          "name": "approved",
          "type": "bool"
        }
      ],
      "name": "ApprovalForAll",
      "type": "event"
    },
    {
      "anonymous": false,
      "inputs": [
        {
          "indexed": true,
          "internalType": "address",
          "name": "from",
          "type": "address"
        },
        {
          "indexed": true,
          "internalType": "address",
          "name": "to",
          "type": "address"
        },
        {
          "indexed": true,
          "internalType": "uint256",
          "name": "tokenId",
          "type": "uint256"
        }
      ],
      "name": "Transfer",
      "type": "event"
    },
    {
      "inputs": [
        {
          "internalType": "uint256",
          "name": "",
          "type": "uint256"
        }
      ],
      "name": "Items",
      "outputs": [
        {
          "internalType": "uint256",
          "name": "id",
          "type": "uint256"
        },
        {
          "internalType": "address",
          "name": "creator",
          "type": "address"
        },
        {
          "internalType": "string",
          "name": "uri",
          "type": "string"
        }
      ],
      "stateMutability": "view",
      "type": "function"
    },
    {
      "inputs": [
        {
          "internalType": "address",
          "name": "to",
          "type": "address"
        },
        {
          "internalType": "uint256",
          "name": "tokenId",
          "type": "uint256"
        }
      ],
      "name": "approve",
      "outputs": [],
      "stateMutability": "nonpayable",
      "type": "function"
    },
    {
      "inputs": [
        {
          "internalType": "address",
          "name": "owner",
          "type": "address"
        }
      ],
      "name": "balanceOf",
      "outputs": [
        {
          "internalType": "uint256",
          "name": "",
          "type": "uint256"
        }
      ],
      "stateMutability": "view",
      "type": "function"
    },
    {
      "inputs": [
        {
          "internalType": "string",
          "name": "_uri",
          "type": "string"
        }
      ],
      "name": "createItem",
      "outputs": [
        {
          "internalType": "uint256",
          "name": "",
          "type": "uint256"
        }
      ],
      "stateMutability": "nonpayable",
      "type": "function"
    },
    {
      "inputs": [
        {
          "internalType": "uint256",
          "name": "tokenId",
          "type": "uint256"
        }
      ],
      "name": "getApproved",
      "outputs": [
        {
          "internalType": "address",
          "name": "",
          "type": "address"
        }
      ],
      "stateMutability": "view",
      "type": "function"
    },
    {
      "inputs": [
        {
          "internalType": "address",
          "name": "owner",
          "type": "address"
        },
        {
          "internalType": "address",
          "name": "operator",
          "type": "address"
        }
      ],
      "name": "isApprovedForAll",
      "outputs": [
        {
          "internalType": "bool",
          "name": "",
          "type": "bool"
        }
      ],
      "stateMutability": "view",
      "type": "function"
    },
    {
      "inputs": [],
      "name": "name",
      "outputs": [
        {
          "internalType": "string",
          "name": "",
          "type": "string"
        }
      ],
      "stateMutability": "view",
      "type": "function"
    },
    {
      "inputs": [
        {
          "internalType": "uint256",
          "name": "tokenId",
          "type": "uint256"
        }
      ],
      "name": "ownerOf",
      "outputs": [
        {
          "internalType": "address",
          "name": "",
          "type": "address"
        }
      ],
      "stateMutability": "view",
      "type": "function"
    },
    {
      "inputs": [
        {
          "internalType": "address",
          "name": "from",
          "type": "address"
        },
        {
          "internalType": "address",
          "name": "to",
          "type": "address"
        },
        {
          "internalType": "uint256",
          "name": "tokenId",
          "type": "uint256"
        }
      ],
      "name": "safeTransferFrom",
      "outputs": [],
      "stateMutability": "nonpayable",
      "type": "function"
    },
    {
      "inputs": [
        {
          "internalType": "address",
          "name": "from",
          "type": "address"
        },
        {
          "internalType": "address",
          "name": "to",
          "type": "address"
        },
        {
          "internalType": "uint256",
          "name": "tokenId",
          "type": "uint256"
        },
        {
          "internalType": "bytes",
          "name": "_data",
          "type": "bytes"
        }
      ],
      "name": "safeTransferFrom",
      "outputs": [],
      "stateMutability": "nonpayable",
      "type": "function"
    },
    {
      "inputs": [
        {
          "internalType": "address",
          "name": "operator",
          "type": "address"
        },
        {
          "internalType": "bool",
          "name": "approved",
          "type": "bool"
        }
      ],
      "name": "setApprovalForAll",
      "outputs": [],
      "stateMutability": "nonpayable",
      "type": "function"
    },
    {
      "inputs": [
        {
          "internalType": "bytes4",
          "name": "interfaceId",
          "type": "bytes4"
        }
      ],
      "name": "supportsInterface",
      "outputs": [
        {
          "internalType": "bool",
          "name": "",
          "type": "bool"
        }
      ],
      "stateMutability": "view",
      "type": "function"
    },
    {
      "inputs": [],
      "name": "symbol",
      "outputs": [
        {
          "internalType": "string",
          "name": "",
          "type": "string"
        }
      ],
      "stateMutability": "view",
      "type": "function"
    },
    {
      "inputs": [
        {
          "internalType": "uint256",
          "name": "tokenId",
          "type": "uint256"
        }
      ],
      "name": "tokenURI",
      "outputs": [
        {
          "internalType": "string",
          "name": "",
          "type": "string"
        }
      ],
      "stateMutability": "view",
      "type": "function"
    },
    {
      "inputs": [
        {
          "internalType": "address",
          "name": "from",
          "type": "address"
        },
        {
          "internalType": "address",
          "name": "to",
          "type": "address"
        },
        {
          "internalType": "uint256",
          "name": "tokenId",
          "type": "uint256"
        }
      ],
      "name": "transferFrom",
      "outputs": [],
      "stateMutability": "nonpayable",
      "type": "function"
    }
  ],
  "bytecode": "0x60806040523480156200001157600080fd5b506040518060400160405280600781526020017f43726f704e4654000000000000000000000000000000000000000000000000008152506040518060400160405280600481526020017f434e465400000000000000000000000000000000000000000000000000000000815250816000908051906020019062000096929190620000b8565b508060019080519060200190620000af929190620000b8565b505050620001cd565b828054620000c69062000168565b90600052602060002090601f016020900481019282620000ea576000855562000136565b82601f106200010557805160ff191683800117855562000136565b8280016001018555821562000136579182015b828111156200013557825182559160200191906001019062000118565b5b50905062000145919062000149565b5090565b5b80821115620001645760008160009055506001016200014a565b5090565b600060028204905060018216806200018157607f821691505b602082108114156200019857620001976200019e565b5b50919050565b7f4e487b7100000000000000000000000000000000000000000000000000000000600052602260045260246000fd5b61275d80620001dd6000396000f3fe608060405234801561001057600080fd5b50600436106100f55760003560e01c806342842e0e11610097578063a22cb46511610066578063a22cb465146102ac578063b88d4fde146102c8578063c87b56dd146102e4578063e985e9c514610314576100f5565b806342842e0e146102125780636352211e1461022e57806370a082311461025e57806395d89b411461028e576100f5565b8063095ea7b3116100d3578063095ea7b31461017857806317b47cc41461019457806323b872dd146101c65780633d54eebb146101e2576100f5565b806301ffc9a7146100fa57806306fdde031461012a578063081812fc14610148575b600080fd5b610114600480360381019061010f9190611ab8565b610344565b604051610121919061219c565b60405180910390f35b610132610426565b60405161013f91906121b7565b60405180910390f35b610162600480360381019061015d9190611b4b565b6104b8565b60405161016f9190612135565b60405180910390f35b610192600480360381019061018d9190611a7c565b61053d565b005b6101ae60048036038101906101a99190611b4b565b610655565b6040516101bd939291906123b4565b60405180910390f35b6101e060048036038101906101db9190611976565b610727565b005b6101fc60048036038101906101f79190611b0a565b610787565b6040516102099190612399565b60405180910390f35b61022c60048036038101906102279190611976565b610869565b005b61024860048036038101906102439190611b4b565b610889565b6040516102559190612135565b60405180910390f35b61027860048036038101906102739190611911565b61093b565b6040516102859190612399565b60405180910390f35b6102966109f3565b6040516102a391906121b7565b60405180910390f35b6102c660048036038101906102c19190611a40565b610a85565b005b6102e260048036038101906102dd91906119c5565b610a9b565b005b6102fe60048036038101906102f99190611b4b565b610afd565b60405161030b91906121b7565b60405180910390f35b61032e6004803603810190610329919061193a565b610bed565b60405161033b919061219c565b60405180910390f35b60007f80ac58cd000000000000000000000000000000000000000000000000000000007bffffffffffffffffffffffffffffffffffffffffffffffffffffffff1916827bffffffffffffffffffffffffffffffffffffffffffffffffffffffff1916148061040f57507f5b5e139f000000000000000000000000000000000000000000000000000000007bffffffffffffffffffffffffffffffffffffffffffffffffffffffff1916827bffffffffffffffffffffffffffffffffffffffffffffffffffffffff1916145b8061041f575061041e82610c81565b5b9050919050565b606060008054610435906125fb565b80601f0160208091040260200160405190810160405280929190818152602001828054610461906125fb565b80156104ae5780601f10610483576101008083540402835291602001916104ae565b820191906000526020600020905b81548152906001019060200180831161049157829003601f168201915b5050505050905090565b60006104c382610ceb565b610502576040517f08c379a00000000000000000000000000000000000000000000000000000000081526004016104f9906122f9565b60405180910390fd5b6004600083815260200190815260200160002060009054906101000a900473ffffffffffffffffffffffffffffffffffffffff169050919050565b600061054882610889565b90508073ffffffffffffffffffffffffffffffffffffffff168373ffffffffffffffffffffffffffffffffffffffff1614156105b9576040517f08c379a00000000000000000000000000000000000000000000000000000000081526004016105b090612359565b60405180910390fd5b8073ffffffffffffffffffffffffffffffffffffffff166105d8610d57565b73ffffffffffffffffffffffffffffffffffffffff161480610607575061060681610601610d57565b610bed565b5b610646576040517f08c379a000000000000000000000000000000000000000000000000000000000815260040161063d90612279565b60405180910390fd5b6106508383610d5f565b505050565b60076020528060005260406000206000915090508060000154908060010160009054906101000a900473ffffffffffffffffffffffffffffffffffffffff16908060020180546106a4906125fb565b80601f01602080910402602001604051908101604052809291908181526020018280546106d0906125fb565b801561071d5780601f106106f25761010080835404028352916020019161071d565b820191906000526020600020905b81548152906001019060200180831161070057829003601f168201915b5050505050905083565b610738610732610d57565b82610e18565b610777576040517f08c379a000000000000000000000000000000000000000000000000000000000815260040161076e90612379565b60405180910390fd5b610782838383610ef6565b505050565b60006107936006611152565b600061079f6006611168565b90506107ab3382611176565b60405180606001604052808281526020013373ffffffffffffffffffffffffffffffffffffffff16815260200184815250600760008381526020019081526020016000206000820151816000015560208201518160010160006101000a81548173ffffffffffffffffffffffffffffffffffffffff021916908373ffffffffffffffffffffffffffffffffffffffff160217905550604082015181600201908051906020019061085c929190611735565b5090505080915050919050565b61088483838360405180602001604052806000815250610a9b565b505050565b6000806002600084815260200190815260200160002060009054906101000a900473ffffffffffffffffffffffffffffffffffffffff169050600073ffffffffffffffffffffffffffffffffffffffff168173ffffffffffffffffffffffffffffffffffffffff161415610932576040517f08c379a0000000000000000000000000000000000000000000000000000000008152600401610929906122b9565b60405180910390fd5b80915050919050565b60008073ffffffffffffffffffffffffffffffffffffffff168273ffffffffffffffffffffffffffffffffffffffff1614156109ac576040517f08c379a00000000000000000000000000000000000000000000000000000000081526004016109a390612299565b60405180910390fd5b600360008373ffffffffffffffffffffffffffffffffffffffff1673ffffffffffffffffffffffffffffffffffffffff168152602001908152602001600020549050919050565b606060018054610a02906125fb565b80601f0160208091040260200160405190810160405280929190818152602001828054610a2e906125fb565b8015610a7b5780601f10610a5057610100808354040283529160200191610a7b565b820191906000526020600020905b815481529060010190602001808311610a5e57829003601f168201915b5050505050905090565b610a97610a90610d57565b8383611194565b5050565b610aac610aa6610d57565b83610e18565b610aeb576040517f08c379a0000000000000000000000000000000000000000000000000000000008152600401610ae290612379565b60405180910390fd5b610af784848484611301565b50505050565b6060610b0882610ceb565b610b47576040517f08c379a0000000000000000000000000000000000000000000000000000000008152600401610b3e90612339565b60405180910390fd5b600760008381526020019081526020016000206002018054610b68906125fb565b80601f0160208091040260200160405190810160405280929190818152602001828054610b94906125fb565b8015610be15780601f10610bb657610100808354040283529160200191610be1565b820191906000526020600020905b815481529060010190602001808311610bc457829003601f168201915b50505050509050919050565b6000600560008473ffffffffffffffffffffffffffffffffffffffff1673ffffffffffffffffffffffffffffffffffffffff16815260200190815260200160002060008373ffffffffffffffffffffffffffffffffffffffff1673ffffffffffffffffffffffffffffffffffffffff16815260200190815260200160002060009054906101000a900460ff16905092915050565b60007f01ffc9a7000000000000000000000000000000000000000000000000000000007bffffffffffffffffffffffffffffffffffffffffffffffffffffffff1916827bffffffffffffffffffffffffffffffffffffffffffffffffffffffff1916149050919050565b60008073ffffffffffffffffffffffffffffffffffffffff166002600084815260200190815260200160002060009054906101000a900473ffffffffffffffffffffffffffffffffffffffff1673ffffffffffffffffffffffffffffffffffffffff1614159050919050565b600033905090565b816004600083815260200190815260200160002060006101000a81548173ffffffffffffffffffffffffffffffffffffffff021916908373ffffffffffffffffffffffffffffffffffffffff160217905550808273ffffffffffffffffffffffffffffffffffffffff16610dd283610889565b73ffffffffffffffffffffffffffffffffffffffff167f8c5be1e5ebec7d5bd14f71427d1e84f3dd0314c0f7b2291e5b200ac8c7c3b92560405160405180910390a45050565b6000610e2382610ceb565b610e62576040517f08c379a0000000000000000000000000000000000000000000000000000000008152600401610e5990612259565b60405180910390fd5b6000610e6d83610889565b90508073ffffffffffffffffffffffffffffffffffffffff168473ffffffffffffffffffffffffffffffffffffffff161480610edc57508373ffffffffffffffffffffffffffffffffffffffff16610ec4846104b8565b73ffffffffffffffffffffffffffffffffffffffff16145b80610eed5750610eec8185610bed565b5b91505092915050565b8273ffffffffffffffffffffffffffffffffffffffff16610f1682610889565b73ffffffffffffffffffffffffffffffffffffffff1614610f6c576040517f08c379a0000000000000000000000000000000000000000000000000000000008152600401610f6390612319565b60405180910390fd5b600073ffffffffffffffffffffffffffffffffffffffff168273ffffffffffffffffffffffffffffffffffffffff161415610fdc576040517f08c379a0000000000000000000000000000000000000000000000000000000008152600401610fd390612219565b60405180910390fd5b610fe783838361135d565b610ff2600082610d5f565b6001600360008573ffffffffffffffffffffffffffffffffffffffff1673ffffffffffffffffffffffffffffffffffffffff16815260200190815260200160002060008282546110429190612511565b925050819055506001600360008473ffffffffffffffffffffffffffffffffffffffff1673ffffffffffffffffffffffffffffffffffffffff168152602001908152602001600020600082825461109991906124bb565b92505081905550816002600083815260200190815260200160002060006101000a81548173ffffffffffffffffffffffffffffffffffffffff021916908373ffffffffffffffffffffffffffffffffffffffff160217905550808273ffffffffffffffffffffffffffffffffffffffff168473ffffffffffffffffffffffffffffffffffffffff167fddf252ad1be2c89b69c2b068fc378daa952ba7f163c4a11628f55a4df523b3ef60405160405180910390a4505050565b6001816000016000828254019250508190555050565b600081600001549050919050565b611190828260405180602001604052806000815250611362565b5050565b8173ffffffffffffffffffffffffffffffffffffffff168373ffffffffffffffffffffffffffffffffffffffff161415611203576040517f08c379a00000000000000000000000000000000000000000000000000000000081526004016111fa90612239565b60405180910390fd5b80600560008573ffffffffffffffffffffffffffffffffffffffff1673ffffffffffffffffffffffffffffffffffffffff16815260200190815260200160002060008473ffffffffffffffffffffffffffffffffffffffff1673ffffffffffffffffffffffffffffffffffffffff16815260200190815260200160002060006101000a81548160ff0219169083151502179055508173ffffffffffffffffffffffffffffffffffffffff168373ffffffffffffffffffffffffffffffffffffffff167f17307eab39ab6107e8899845ad3d59bd9653f200f220920489ca2b5937696c31836040516112f4919061219c565b60405180910390a3505050565b61130c848484610ef6565b611318848484846113bd565b611357576040517f08c379a000000000000000000000000000000000000000000000000000000000815260040161134e906121d9565b60405180910390fd5b50505050565b505050565b61136c8383611554565b61137960008484846113bd565b6113b8576040517f08c379a00000000000000000000000000000000000000000000000000000000081526004016113af906121d9565b60405180910390fd5b505050565b60006113de8473ffffffffffffffffffffffffffffffffffffffff16611722565b15611547578373ffffffffffffffffffffffffffffffffffffffff1663150b7a02611407610d57565b8786866040518563ffffffff1660e01b81526004016114299493929190612150565b602060405180830381600087803b15801561144357600080fd5b505af192505050801561147457506040513d601f19601f820116820180604052508101906114719190611ae1565b60015b6114f7573d80600081146114a4576040519150601f19603f3d011682016040523d82523d6000602084013e6114a9565b606091505b506000815114156114ef576040517f08c379a00000000000000000000000000000000000000000000000000000000081526004016114e6906121d9565b60405180910390fd5b805181602001fd5b63150b7a0260e01b7bffffffffffffffffffffffffffffffffffffffffffffffffffffffff1916817bffffffffffffffffffffffffffffffffffffffffffffffffffffffff19161491505061154c565b600190505b949350505050565b600073ffffffffffffffffffffffffffffffffffffffff168273ffffffffffffffffffffffffffffffffffffffff1614156115c4576040517f08c379a00000000000000000000000000000000000000000000000000000000081526004016115bb906122d9565b60405180910390fd5b6115cd81610ceb565b1561160d576040517f08c379a0000000000000000000000000000000000000000000000000000000008152600401611604906121f9565b60405180910390fd5b6116196000838361135d565b6001600360008473ffffffffffffffffffffffffffffffffffffffff1673ffffffffffffffffffffffffffffffffffffffff168152602001908152602001600020600082825461166991906124bb565b92505081905550816002600083815260200190815260200160002060006101000a81548173ffffffffffffffffffffffffffffffffffffffff021916908373ffffffffffffffffffffffffffffffffffffffff160217905550808273ffffffffffffffffffffffffffffffffffffffff16600073ffffffffffffffffffffffffffffffffffffffff167fddf252ad1be2c89b69c2b068fc378daa952ba7f163c4a11628f55a4df523b3ef60405160405180910390a45050565b600080823b905060008111915050919050565b828054611741906125fb565b90600052602060002090601f01602090048101928261176357600085556117aa565b82601f1061177c57805160ff19168380011785556117aa565b828001600101855582156117aa579182015b828111156117a957825182559160200191906001019061178e565b5b5090506117b791906117bb565b5090565b5b808211156117d45760008160009055506001016117bc565b5090565b60006117eb6117e684612423565b6123f2565b90508281526020810184848401111561180357600080fd5b61180e8482856125b9565b509392505050565b600061182961182484612453565b6123f2565b90508281526020810184848401111561184157600080fd5b61184c8482856125b9565b509392505050565b600081359050611863816126cb565b92915050565b600081359050611878816126e2565b92915050565b60008135905061188d816126f9565b92915050565b6000815190506118a2816126f9565b92915050565b600082601f8301126118b957600080fd5b81356118c98482602086016117d8565b91505092915050565b600082601f8301126118e357600080fd5b81356118f3848260208601611816565b91505092915050565b60008135905061190b81612710565b92915050565b60006020828403121561192357600080fd5b600061193184828501611854565b91505092915050565b6000806040838503121561194d57600080fd5b600061195b85828601611854565b925050602061196c85828601611854565b9150509250929050565b60008060006060848603121561198b57600080fd5b600061199986828701611854565b93505060206119aa86828701611854565b92505060406119bb868287016118fc565b9150509250925092565b600080600080608085870312156119db57600080fd5b60006119e987828801611854565b94505060206119fa87828801611854565b9350506040611a0b878288016118fc565b925050606085013567ffffffffffffffff811115611a2857600080fd5b611a34878288016118a8565b91505092959194509250565b60008060408385031215611a5357600080fd5b6000611a6185828601611854565b9250506020611a7285828601611869565b9150509250929050565b60008060408385031215611a8f57600080fd5b6000611a9d85828601611854565b9250506020611aae858286016118fc565b9150509250929050565b600060208284031215611aca57600080fd5b6000611ad88482850161187e565b91505092915050565b600060208284031215611af357600080fd5b6000611b0184828501611893565b91505092915050565b600060208284031215611b1c57600080fd5b600082013567ffffffffffffffff811115611b3657600080fd5b611b42848285016118d2565b91505092915050565b600060208284031215611b5d57600080fd5b6000611b6b848285016118fc565b91505092915050565b611b7d81612545565b82525050565b611b8c81612557565b82525050565b6000611b9d82612483565b611ba78185612499565b9350611bb78185602086016125c8565b611bc0816126ba565b840191505092915050565b6000611bd68261248e565b611be081856124aa565b9350611bf08185602086016125c8565b611bf9816126ba565b840191505092915050565b6000611c116032836124aa565b91507f4552433732313a207472616e7366657220746f206e6f6e20455243373231526560008301527f63656976657220696d706c656d656e74657200000000000000000000000000006020830152604082019050919050565b6000611c77601c836124aa565b91507f4552433732313a20746f6b656e20616c7265616479206d696e746564000000006000830152602082019050919050565b6000611cb76024836124aa565b91507f4552433732313a207472616e7366657220746f20746865207a65726f2061646460008301527f72657373000000000000000000000000000000000000000000000000000000006020830152604082019050919050565b6000611d1d6019836124aa565b91507f4552433732313a20617070726f766520746f2063616c6c6572000000000000006000830152602082019050919050565b6000611d5d602c836124aa565b91507f4552433732313a206f70657261746f7220717565727920666f72206e6f6e657860008301527f697374656e7420746f6b656e00000000000000000000000000000000000000006020830152604082019050919050565b6000611dc36038836124aa565b91507f4552433732313a20617070726f76652063616c6c6572206973206e6f74206f7760008301527f6e6572206e6f7220617070726f76656420666f7220616c6c00000000000000006020830152604082019050919050565b6000611e29602a836124aa565b91507f4552433732313a2062616c616e636520717565727920666f7220746865207a6560008301527f726f2061646472657373000000000000000000000000000000000000000000006020830152604082019050919050565b6000611e8f6029836124aa565b91507f4552433732313a206f776e657220717565727920666f72206e6f6e657869737460008301527f656e7420746f6b656e00000000000000000000000000000000000000000000006020830152604082019050919050565b6000611ef56020836124aa565b91507f4552433732313a206d696e7420746f20746865207a65726f20616464726573736000830152602082019050919050565b6000611f35602c836124aa565b91507f4552433732313a20617070726f76656420717565727920666f72206e6f6e657860008301527f697374656e7420746f6b656e00000000000000000000000000000000000000006020830152604082019050919050565b6000611f9b6029836124aa565b91507f4552433732313a207472616e73666572206f6620746f6b656e2074686174206960008301527f73206e6f74206f776e00000000000000000000000000000000000000000000006020830152604082019050919050565b6000612001602f836124aa565b91507f4552433732314d657461646174613a2055524920717565727920666f72206e6f60008301527f6e6578697374656e7420746f6b656e00000000000000000000000000000000006020830152604082019050919050565b60006120676021836124aa565b91507f4552433732313a20617070726f76616c20746f2063757272656e74206f776e6560008301527f72000000000000000000000000000000000000000000000000000000000000006020830152604082019050919050565b60006120cd6031836124aa565b91507f4552433732313a207472616e736665722063616c6c6572206973206e6f74206f60008301527f776e6572206e6f7220617070726f7665640000000000000000000000000000006020830152604082019050919050565b61212f816125af565b82525050565b600060208201905061214a6000830184611b74565b92915050565b60006080820190506121656000830187611b74565b6121726020830186611b74565b61217f6040830185612126565b81810360608301526121918184611b92565b905095945050505050565b60006020820190506121b16000830184611b83565b92915050565b600060208201905081810360008301526121d18184611bcb565b905092915050565b600060208201905081810360008301526121f281611c04565b9050919050565b6000602082019050818103600083015261221281611c6a565b9050919050565b6000602082019050818103600083015261223281611caa565b9050919050565b6000602082019050818103600083015261225281611d10565b9050919050565b6000602082019050818103600083015261227281611d50565b9050919050565b6000602082019050818103600083015261229281611db6565b9050919050565b600060208201905081810360008301526122b281611e1c565b9050919050565b600060208201905081810360008301526122d281611e82565b9050919050565b600060208201905081810360008301526122f281611ee8565b9050919050565b6000602082019050818103600083015261231281611f28565b9050919050565b6000602082019050818103600083015261233281611f8e565b9050919050565b6000602082019050818103600083015261235281611ff4565b9050919050565b600060208201905081810360008301526123728161205a565b9050919050565b60006020820190508181036000830152612392816120c0565b9050919050565b60006020820190506123ae6000830184612126565b92915050565b60006060820190506123c96000830186612126565b6123d66020830185611b74565b81810360408301526123e88184611bcb565b9050949350505050565b6000604051905081810181811067ffffffffffffffff821117156124195761241861268b565b5b8060405250919050565b600067ffffffffffffffff82111561243e5761243d61268b565b5b601f19601f8301169050602081019050919050565b600067ffffffffffffffff82111561246e5761246d61268b565b5b601f19601f8301169050602081019050919050565b600081519050919050565b600081519050919050565b600082825260208201905092915050565b600082825260208201905092915050565b60006124c6826125af565b91506124d1836125af565b9250827fffffffffffffffffffffffffffffffffffffffffffffffffffffffffffffffff038211156125065761250561262d565b5b828201905092915050565b600061251c826125af565b9150612527836125af565b92508282101561253a5761253961262d565b5b828203905092915050565b60006125508261258f565b9050919050565b60008115159050919050565b60007fffffffff0000000000000000000000000000000000000000000000000000000082169050919050565b600073ffffffffffffffffffffffffffffffffffffffff82169050919050565b6000819050919050565b82818337600083830152505050565b60005b838110156125e65780820151818401526020810190506125cb565b838111156125f5576000848401525b50505050565b6000600282049050600182168061261357607f821691505b602082108114156126275761262661265c565b5b50919050565b7f4e487b7100000000000000000000000000000000000000000000000000000000600052601160045260246000fd5b7f4e487b7100000000000000000000000000000000000000000000000000000000600052602260045260246000fd5b7f4e487b7100000000000000000000000000000000000000000000000000000000600052604160045260246000fd5b6000601f19601f8301169050919050565b6126d481612545565b81146126df57600080fd5b50565b6126eb81612557565b81146126f657600080fd5b50565b61270281612563565b811461270d57600080fd5b50565b612719816125af565b811461272457600080fd5b5056fea264697066735822122081bd047ee19b4d58316ba9fe822bcb0dd6b604a5b0452ce035110e447ad3c3f364736f6c63430008000033",
  "linkReferences": {},
  "deployedLinkReferences": {}
}