{
  "_format": "hh-sol-artifact-1",
  "contractName": "CropNFT",
  "sourceName": "contracts/CropNFT.sol",
  "abi": [
    {
      "inputs": [],
      "stateMutability": "nonpayable",
      "type": "constructor"
    },
    {
      "anonymous": false,
      "inputs": [
        {
          "indexed": true,
          "internalType": "address",
          "name": "owner",
          "type": "address"
        },
        {
          "indexed": true,
          "internalType": "address",
          "name": "approved",
          "type": "address"
        },
        {
          "indexed": true,
          "internalType": "uint256",
          "name": "tokenId",
          "type": "uint256"
        }
      ],
      "name": "Approval",
      "type": "event"
    },
    {
      "anonymous": false,
      "inputs": [
        {
          "indexed": true,
          "internalType": "address",
          "name": "owner",
          "type": "address"
        },
        {
          "indexed": true,
          "internalType": "address",
          "name": "operator",
          "type": "address"
        },
        {
          "indexed": false,
          "internalType": "bool",
          "name": "approved",
          "type": "bool"
        }
      ],
      "name": "ApprovalForAll",
      "type": "event"
    },
    {
      "anonymous": false,
      "inputs": [
        {
          "indexed": true,
          "internalType": "address",
          "name": "from",
          "type": "address"
        },
        {
          "indexed": true,
          "internalType": "address",
          "name": "to",
          "type": "address"
        },
        {
          "indexed": true,
          "internalType": "uint256",
          "name": "tokenId",
          "type": "uint256"
        }
      ],
      "name": "Transfer",
      "type": "event"
    },
    {
      "inputs": [
        {
          "internalType": "uint256",
          "name": "",
          "type": "uint256"
        }
      ],
      "name": "Items",
      "outputs": [
        {
          "internalType": "uint256",
          "name": "id",
          "type": "uint256"
        },
        {
          "internalType": "address",
          "name": "creator",
          "type": "address"
        },
        {
          "internalType": "string",
          "name": "uri",
          "type": "string"
        }
      ],
      "stateMutability": "view",
      "type": "function"
    },
    {
      "inputs": [
        {
          "internalType": "address",
          "name": "to",
          "type": "address"
        },
        {
          "internalType": "uint256",
          "name": "tokenId",
          "type": "uint256"
        }
      ],
      "name": "approve",
      "outputs": [],
      "stateMutability": "nonpayable",
      "type": "function"
    },
    {
      "inputs": [
        {
          "internalType": "address",
          "name": "owner",
          "type": "address"
        }
      ],
      "name": "balanceOf",
      "outputs": [
        {
          "internalType": "uint256",
          "name": "",
          "type": "uint256"
        }
      ],
      "stateMutability": "view",
      "type": "function"
    },
    {
      "inputs": [
        {
          "internalType": "string",
          "name": "_uri",
          "type": "string"
        }
      ],
      "name": "createItem",
      "outputs": [
        {
          "internalType": "uint256",
          "name": "",
          "type": "uint256"
        }
      ],
      "stateMutability": "nonpayable",
      "type": "function"
    },
    {
      "inputs": [
        {
          "internalType": "uint256",
          "name": "tokenId",
          "type": "uint256"
        }
      ],
      "name": "getApproved",
      "outputs": [
        {
          "internalType": "address",
          "name": "",
          "type": "address"
        }
      ],
      "stateMutability": "view",
      "type": "function"
    },
    {
      "inputs": [
        {
          "internalType": "address",
          "name": "owner",
          "type": "address"
        },
        {
          "internalType": "address",
          "name": "operator",
          "type": "address"
        }
      ],
      "name": "isApprovedForAll",
      "outputs": [
        {
          "internalType": "bool",
          "name": "",
          "type": "bool"
        }
      ],
      "stateMutability": "view",
      "type": "function"
    },
    {
      "inputs": [],
      "name": "name",
      "outputs": [
        {
          "internalType": "string",
          "name": "",
          "type": "string"
        }
      ],
      "stateMutability": "view",
      "type": "function"
    },
    {
      "inputs": [
        {
          "internalType": "uint256",
          "name": "tokenId",
          "type": "uint256"
        }
      ],
      "name": "ownerOf",
      "outputs": [
        {
          "internalType": "address",
          "name": "",
          "type": "address"
        }
      ],
      "stateMutability": "view",
      "type": "function"
    },
    {
      "inputs": [
        {
          "internalType": "address",
          "name": "from",
          "type": "address"
        },
        {
          "internalType": "address",
          "name": "to",
          "type": "address"
        },
        {
          "internalType": "uint256",
          "name": "tokenId",
          "type": "uint256"
        }
      ],
      "name": "safeTransferFrom",
      "outputs": [],
      "stateMutability": "nonpayable",
      "type": "function"
    },
    {
      "inputs": [
        {
          "internalType": "address",
          "name": "from",
          "type": "address"
        },
        {
          "internalType": "address",
          "name": "to",
          "type": "address"
        },
        {
          "internalType": "uint256",
          "name": "tokenId",
          "type": "uint256"
        },
        {
          "internalType": "bytes",
          "name": "_data",
          "type": "bytes"
        }
      ],
      "name": "safeTransferFrom",
      "outputs": [],
      "stateMutability": "nonpayable",
      "type": "function"
    },
    {
      "inputs": [
        {
          "internalType": "address",
          "name": "operator",
          "type": "address"
        },
        {
          "internalType": "bool",
          "name": "approved",
          "type": "bool"
        }
      ],
      "name": "setApprovalForAll",
      "outputs": [],
      "stateMutability": "nonpayable",
      "type": "function"
    },
    {
      "inputs": [
        {
          "internalType": "bytes4",
          "name": "interfaceId",
          "type": "bytes4"
        }
      ],
      "name": "supportsInterface",
      "outputs": [
        {
          "internalType": "bool",
          "name": "",
          "type": "bool"
        }
      ],
      "stateMutability": "view",
      "type": "function"
    },
    {
      "inputs": [],
      "name": "symbol",
      "outputs": [
        {
          "internalType": "string",
          "name": "",
          "type": "string"
        }
      ],
      "stateMutability": "view",
      "type": "function"
    },
    {
      "inputs": [
        {
          "internalType": "uint256",
          "name": "tokenId",
          "type": "uint256"
        }
      ],
      "name": "tokenURI",
      "outputs": [
        {
          "internalType": "string",
          "name": "",
          "type": "string"
        }
      ],
      "stateMutability": "view",
      "type": "function"
    },
    {
      "inputs": [
        {
          "internalType": "address",
          "name": "from",
          "type": "address"
        },
        {
          "internalType": "address",
          "name": "to",
          "type": "address"
        },
        {
          "internalType": "uint256",
          "name": "tokenId",
          "type": "uint256"
        }
      ],
      "name": "transferFrom",
      "outputs": [],
      "stateMutability": "nonpayable",
      "type": "function"
    }
  ],
  "bytecode": "0x60806040523480156200001157600080fd5b506040518060400160405280600781526020017f43726f704e4654000000000000000000000000000000000000000000000000008152506040518060400160405280600481526020017f434e465400000000000000000000000000000000000000000000000000000000815250816000908051906020019062000096929190620000b8565b508060019080519060200190620000af929190620000b8565b505050620001cd565b828054620000c69062000168565b90600052602060002090601f016020900481019282620000ea576000855562000136565b82601f106200010557805160ff191683800117855562000136565b8280016001018555821562000136579182015b828111156200013557825182559160200191906001019062000118565b5b50905062000145919062000149565b5090565b5b80821115620001645760008160009055506001016200014a565b5090565b600060028204905060018216806200018157607f821691505b602082108114156200019857620001976200019e565b5b50919050565b7f4e487b7100000000000000000000000000000000000000000000000000000000600052602260045260246000fd5b61282c80620001dd6000396000f3fe608060405234801561001057600080fd5b50600436106100f55760003560e01c806342842e0e11610097578063a22cb46511610066578063a22cb465146102ac578063b88d4fde146102c8578063c87b56dd146102e4578063e985e9c514610314576100f5565b806342842e0e146102125780636352211e1461022e57806370a082311461025e57806395d89b411461028e576100f5565b8063095ea7b3116100d3578063095ea7b31461017857806317b47cc41461019457806323b872dd146101c65780633d54eebb146101e2576100f5565b806301ffc9a7146100fa57806306fdde031461012a578063081812fc14610148575b600080fd5b610114600480360381019061010f9190611ab8565b610344565b6040516101219190611e64565b60405180910390f35b610132610426565b60405161013f9190611e7f565b60405180910390f35b610162600480360381019061015d9190611b4b565b6104b8565b60405161016f9190611dfd565b60405180910390f35b610192600480360381019061018d9190611a7c565b61053d565b005b6101ae60048036038101906101a99190611b4b565b610655565b6040516101bd9392919061207c565b60405180910390f35b6101e060048036038101906101db9190611976565b610727565b005b6101fc60048036038101906101f79190611b0a565b610787565b6040516102099190612061565b60405180910390f35b61022c60048036038101906102279190611976565b610869565b005b61024860048036038101906102439190611b4b565b610889565b6040516102559190611dfd565b60405180910390f35b61027860048036038101906102739190611911565b61093b565b6040516102859190612061565b60405180910390f35b6102966109f3565b6040516102a39190611e7f565b60405180910390f35b6102c660048036038101906102c19190611a40565b610a85565b005b6102e260048036038101906102dd91906119c5565b610a9b565b005b6102fe60048036038101906102f99190611b4b565b610afd565b60405161030b9190611e7f565b60405180910390f35b61032e6004803603810190610329919061193a565b610bed565b60405161033b9190611e64565b60405180910390f35b60007f80ac58cd000000000000000000000000000000000000000000000000000000007bffffffffffffffffffffffffffffffffffffffffffffffffffffffff1916827bffffffffffffffffffffffffffffffffffffffffffffffffffffffff1916148061040f57507f5b5e139f000000000000000000000000000000000000000000000000000000007bffffffffffffffffffffffffffffffffffffffffffffffffffffffff1916827bffffffffffffffffffffffffffffffffffffffffffffffffffffffff1916145b8061041f575061041e82610c81565b5b9050919050565b606060008054610435906122b9565b80601f0160208091040260200160405190810160405280929190818152602001828054610461906122b9565b80156104ae5780601f10610483576101008083540402835291602001916104ae565b820191906000526020600020905b81548152906001019060200180831161049157829003601f168201915b5050505050905090565b60006104c382610ceb565b610502576040517f08c379a00000000000000000000000000000000000000000000000000000000081526004016104f990611fc1565b60405180910390fd5b6004600083815260200190815260200160002060009054906101000a900473ffffffffffffffffffffffffffffffffffffffff169050919050565b600061054882610889565b90508073ffffffffffffffffffffffffffffffffffffffff168373ffffffffffffffffffffffffffffffffffffffff1614156105b9576040517f08c379a00000000000000000000000000000000000000000000000000000000081526004016105b090612021565b60405180910390fd5b8073ffffffffffffffffffffffffffffffffffffffff166105d8610d57565b73ffffffffffffffffffffffffffffffffffffffff161480610607575061060681610601610d57565b610bed565b5b610646576040517f08c379a000000000000000000000000000000000000000000000000000000000815260040161063d90611f41565b60405180910390fd5b6106508383610d5f565b505050565b60076020528060005260406000206000915090508060000154908060010160009054906101000a900473ffffffffffffffffffffffffffffffffffffffff16908060020180546106a4906122b9565b80601f01602080910402602001604051908101604052809291908181526020018280546106d0906122b9565b801561071d5780601f106106f25761010080835404028352916020019161071d565b820191906000526020600020905b81548152906001019060200180831161070057829003601f168201915b5050505050905083565b610738610732610d57565b82610e18565b610777576040517f08c379a000000000000000000000000000000000000000000000000000000000815260040161076e90612041565b60405180910390fd5b610782838383610ef6565b505050565b60006107936006611152565b600061079f6006611168565b90506107ab3382611176565b60405180606001604052808281526020013373ffffffffffffffffffffffffffffffffffffffff16815260200184815250600760008381526020019081526020016000206000820151816000015560208201518160010160006101000a81548173ffffffffffffffffffffffffffffffffffffffff021916908373ffffffffffffffffffffffffffffffffffffffff160217905550604082015181600201908051906020019061085c929190611735565b5090505080915050919050565b61088483838360405180602001604052806000815250610a9b565b505050565b6000806002600084815260200190815260200160002060009054906101000a900473ffffffffffffffffffffffffffffffffffffffff169050600073ffffffffffffffffffffffffffffffffffffffff168173ffffffffffffffffffffffffffffffffffffffff161415610932576040517f08c379a000000000000000000000000000000000000000000000000000000000815260040161092990611f81565b60405180910390fd5b80915050919050565b60008073ffffffffffffffffffffffffffffffffffffffff168273ffffffffffffffffffffffffffffffffffffffff1614156109ac576040517f08c379a00000000000000000000000000000000000000000000000000000000081526004016109a390611f61565b60405180910390fd5b600360008373ffffffffffffffffffffffffffffffffffffffff1673ffffffffffffffffffffffffffffffffffffffff168152602001908152602001600020549050919050565b606060018054610a02906122b9565b80601f0160208091040260200160405190810160405280929190818152602001828054610a2e906122b9565b8015610a7b5780601f10610a5057610100808354040283529160200191610a7b565b820191906000526020600020905b815481529060010190602001808311610a5e57829003601f168201915b5050505050905090565b610a97610a90610d57565b8383611194565b5050565b610aac610aa6610d57565b83610e18565b610aeb576040517f08c379a0000000000000000000000000000000000000000000000000000000008152600401610ae290612041565b60405180910390fd5b610af784848484611301565b50505050565b6060610b0882610ceb565b610b47576040517f08c379a0000000000000000000000000000000000000000000000000000000008152600401610b3e90612001565b60405180910390fd5b600760008381526020019081526020016000206002018054610b68906122b9565b80601f0160208091040260200160405190810160405280929190818152602001828054610b94906122b9565b8015610be15780601f10610bb657610100808354040283529160200191610be1565b820191906000526020600020905b815481529060010190602001808311610bc457829003601f168201915b50505050509050919050565b6000600560008473ffffffffffffffffffffffffffffffffffffffff1673ffffffffffffffffffffffffffffffffffffffff16815260200190815260200160002060008373ffffffffffffffffffffffffffffffffffffffff1673ffffffffffffffffffffffffffffffffffffffff16815260200190815260200160002060009054906101000a900460ff16905092915050565b60007f01ffc9a7000000000000000000000000000000000000000000000000000000007bffffffffffffffffffffffffffffffffffffffffffffffffffffffff1916827bffffffffffffffffffffffffffffffffffffffffffffffffffffffff1916149050919050565b60008073ffffffffffffffffffffffffffffffffffffffff166002600084815260200190815260200160002060009054906101000a900473ffffffffffffffffffffffffffffffffffffffff1673ffffffffffffffffffffffffffffffffffffffff1614159050919050565b600033905090565b816004600083815260200190815260200160002060006101000a81548173ffffffffffffffffffffffffffffffffffffffff021916908373ffffffffffffffffffffffffffffffffffffffff160217905550808273ffffffffffffffffffffffffffffffffffffffff16610dd283610889565b73ffffffffffffffffffffffffffffffffffffffff167f8c5be1e5ebec7d5bd14f71427d1e84f3dd0314c0f7b2291e5b200ac8c7c3b92560405160405180910390a45050565b6000610e2382610ceb565b610e62576040517f08c379a0000000000000000000000000000000000000000000000000000000008152600401610e5990611f21565b60405180910390fd5b6000610e6d83610889565b90508073ffffffffffffffffffffffffffffffffffffffff168473ffffffffffffffffffffffffffffffffffffffff161480610edc57508373ffffffffffffffffffffffffffffffffffffffff16610ec4846104b8565b73ffffffffffffffffffffffffffffffffffffffff16145b80610eed5750610eec8185610bed565b5b91505092915050565b8273ffffffffffffffffffffffffffffffffffffffff16610f1682610889565b73ffffffffffffffffffffffffffffffffffffffff1614610f6c576040517f08c379a0000000000000000000000000000000000000000000000000000000008152600401610f6390611fe1565b60405180910390fd5b600073ffffffffffffffffffffffffffffffffffffffff168273ffffffffffffffffffffffffffffffffffffffff161415610fdc576040517f08c379a0000000000000000000000000000000000000000000000000000000008152600401610fd390611ee1565b60405180910390fd5b610fe783838361135d565b610ff2600082610d5f565b6001600360008573ffffffffffffffffffffffffffffffffffffffff1673ffffffffffffffffffffffffffffffffffffffff168152602001908152602001600020600082825461104291906121cf565b925050819055506001600360008473ffffffffffffffffffffffffffffffffffffffff1673ffffffffffffffffffffffffffffffffffffffff16815260200190815260200160002060008282546110999190612179565b92505081905550816002600083815260200190815260200160002060006101000a81548173ffffffffffffffffffffffffffffffffffffffff021916908373ffffffffffffffffffffffffffffffffffffffff160217905550808273ffffffffffffffffffffffffffffffffffffffff168473ffffffffffffffffffffffffffffffffffffffff167fddf252ad1be2c89b69c2b068fc378daa952ba7f163c4a11628f55a4df523b3ef60405160405180910390a4505050565b6001816000016000828254019250508190555050565b600081600001549050919050565b611190828260405180602001604052806000815250611362565b5050565b8173ffffffffffffffffffffffffffffffffffffffff168373ffffffffffffffffffffffffffffffffffffffff161415611203576040517f08c379a00000000000000000000000000000000000000000000000000000000081526004016111fa90611f01565b60405180910390fd5b80600560008573ffffffffffffffffffffffffffffffffffffffff1673ffffffffffffffffffffffffffffffffffffffff16815260200190815260200160002060008473ffffffffffffffffffffffffffffffffffffffff1673ffffffffffffffffffffffffffffffffffffffff16815260200190815260200160002060006101000a81548160ff0219169083151502179055508173ffffffffffffffffffffffffffffffffffffffff168373ffffffffffffffffffffffffffffffffffffffff167f17307eab39ab6107e8899845ad3d59bd9653f200f220920489ca2b5937696c31836040516112f49190611e64565b60405180910390a3505050565b61130c848484610ef6565b611318848484846113bd565b611357576040517f08c379a000000000000000000000000000000000000000000000000000000000815260040161134e90611ea1565b60405180910390fd5b50505050565b505050565b61136c8383611554565b61137960008484846113bd565b6113b8576040517f08c379a00000000000000000000000000000000000000000000000000000000081526004016113af90611ea1565b60405180910390fd5b505050565b60006113de8473ffffffffffffffffffffffffffffffffffffffff16611722565b15611547578373ffffffffffffffffffffffffffffffffffffffff1663150b7a02611407610d57565b8786866040518563ffffffff1660e01b81526004016114299493929190611e18565b602060405180830381600087803b15801561144357600080fd5b505af192505050801561147457506040513d601f19601f820116820180604052508101906114719190611ae1565b60015b6114f7573d80600081146114a4576040519150601f19603f3d011682016040523d82523d6000602084013e6114a9565b606091505b506000815114156114ef576040517f08c379a00000000000000000000000000000000000000000000000000000000081526004016114e690611ea1565b60405180910390fd5b805181602001fd5b63150b7a0260e01b7bffffffffffffffffffffffffffffffffffffffffffffffffffffffff1916817bffffffffffffffffffffffffffffffffffffffffffffffffffffffff19161491505061154c565b600190505b949350505050565b600073ffffffffffffffffffffffffffffffffffffffff168273ffffffffffffffffffffffffffffffffffffffff1614156115c4576040517f08c379a00000000000000000000000000000000000000000000000000000000081526004016115bb90611fa1565b60405180910390fd5b6115cd81610ceb565b1561160d576040517f08c379a000000000000000000000000000000000000000000000000000000000815260040161160490611ec1565b60405180910390fd5b6116196000838361135d565b6001600360008473ffffffffffffffffffffffffffffffffffffffff1673ffffffffffffffffffffffffffffffffffffffff16815260200190815260200160002060008282546116699190612179565b92505081905550816002600083815260200190815260200160002060006101000a81548173ffffffffffffffffffffffffffffffffffffffff021916908373ffffffffffffffffffffffffffffffffffffffff160217905550808273ffffffffffffffffffffffffffffffffffffffff16600073ffffffffffffffffffffffffffffffffffffffff167fddf252ad1be2c89b69c2b068fc378daa952ba7f163c4a11628f55a4df523b3ef60405160405180910390a45050565b600080823b905060008111915050919050565b828054611741906122b9565b90600052602060002090601f01602090048101928261176357600085556117aa565b82601f1061177c57805160ff19168380011785556117aa565b828001600101855582156117aa579182015b828111156117a957825182559160200191906001019061178e565b5b5090506117b791906117bb565b5090565b5b808211156117d45760008160009055506001016117bc565b5090565b60006117eb6117e6846120df565b6120ba565b90508281526020810184848401111561180357600080fd5b61180e848285612277565b509392505050565b600061182961182484612110565b6120ba565b90508281526020810184848401111561184157600080fd5b61184c848285612277565b509392505050565b6000813590506118638161279a565b92915050565b600081359050611878816127b1565b92915050565b60008135905061188d816127c8565b92915050565b6000815190506118a2816127c8565b92915050565b600082601f8301126118b957600080fd5b81356118c98482602086016117d8565b91505092915050565b600082601f8301126118e357600080fd5b81356118f3848260208601611816565b91505092915050565b60008135905061190b816127df565b92915050565b60006020828403121561192357600080fd5b600061193184828501611854565b91505092915050565b6000806040838503121561194d57600080fd5b600061195b85828601611854565b925050602061196c85828601611854565b9150509250929050565b60008060006060848603121561198b57600080fd5b600061199986828701611854565b93505060206119aa86828701611854565b92505060406119bb868287016118fc565b9150509250925092565b600080600080608085870312156119db57600080fd5b60006119e987828801611854565b94505060206119fa87828801611854565b9350506040611a0b878288016118fc565b925050606085013567ffffffffffffffff811115611a2857600080fd5b611a34878288016118a8565b91505092959194509250565b60008060408385031215611a5357600080fd5b6000611a6185828601611854565b9250506020611a7285828601611869565b9150509250929050565b60008060408385031215611a8f57600080fd5b6000611a9d85828601611854565b9250506020611aae858286016118fc565b9150509250929050565b600060208284031215611aca57600080fd5b6000611ad88482850161187e565b91505092915050565b600060208284031215611af357600080fd5b6000611b0184828501611893565b91505092915050565b600060208284031215611b1c57600080fd5b600082013567ffffffffffffffff811115611b3657600080fd5b611b42848285016118d2565b91505092915050565b600060208284031215611b5d57600080fd5b6000611b6b848285016118fc565b91505092915050565b611b7d81612203565b82525050565b611b8c81612215565b82525050565b6000611b9d82612141565b611ba78185612157565b9350611bb7818560208601612286565b611bc0816123a9565b840191505092915050565b6000611bd68261214c565b611be08185612168565b9350611bf0818560208601612286565b611bf9816123a9565b840191505092915050565b6000611c11603283612168565b9150611c1c826123ba565b604082019050919050565b6000611c34601c83612168565b9150611c3f82612409565b602082019050919050565b6000611c57602483612168565b9150611c6282612432565b604082019050919050565b6000611c7a601983612168565b9150611c8582612481565b602082019050919050565b6000611c9d602c83612168565b9150611ca8826124aa565b604082019050919050565b6000611cc0603883612168565b9150611ccb826124f9565b604082019050919050565b6000611ce3602a83612168565b9150611cee82612548565b604082019050919050565b6000611d06602983612168565b9150611d1182612597565b604082019050919050565b6000611d29602083612168565b9150611d34826125e6565b602082019050919050565b6000611d4c602c83612168565b9150611d578261260f565b604082019050919050565b6000611d6f602983612168565b9150611d7a8261265e565b604082019050919050565b6000611d92602f83612168565b9150611d9d826126ad565b604082019050919050565b6000611db5602183612168565b9150611dc0826126fc565b604082019050919050565b6000611dd8603183612168565b9150611de38261274b565b604082019050919050565b611df78161226d565b82525050565b6000602082019050611e126000830184611b74565b92915050565b6000608082019050611e2d6000830187611b74565b611e3a6020830186611b74565b611e476040830185611dee565b8181036060830152611e598184611b92565b905095945050505050565b6000602082019050611e796000830184611b83565b92915050565b60006020820190508181036000830152611e998184611bcb565b905092915050565b60006020820190508181036000830152611eba81611c04565b9050919050565b60006020820190508181036000830152611eda81611c27565b9050919050565b60006020820190508181036000830152611efa81611c4a565b9050919050565b60006020820190508181036000830152611f1a81611c6d565b9050919050565b60006020820190508181036000830152611f3a81611c90565b9050919050565b60006020820190508181036000830152611f5a81611cb3565b9050919050565b60006020820190508181036000830152611f7a81611cd6565b9050919050565b60006020820190508181036000830152611f9a81611cf9565b9050919050565b60006020820190508181036000830152611fba81611d1c565b9050919050565b60006020820190508181036000830152611fda81611d3f565b9050919050565b60006020820190508181036000830152611ffa81611d62565b9050919050565b6000602082019050818103600083015261201a81611d85565b9050919050565b6000602082019050818103600083015261203a81611da8565b9050919050565b6000602082019050818103600083015261205a81611dcb565b9050919050565b60006020820190506120766000830184611dee565b92915050565b60006060820190506120916000830186611dee565b61209e6020830185611b74565b81810360408301526120b08184611bcb565b9050949350505050565b60006120c46120d5565b90506120d082826122eb565b919050565b6000604051905090565b600067ffffffffffffffff8211156120fa576120f961237a565b5b612103826123a9565b9050602081019050919050565b600067ffffffffffffffff82111561212b5761212a61237a565b5b612134826123a9565b9050602081019050919050565b600081519050919050565b600081519050919050565b600082825260208201905092915050565b600082825260208201905092915050565b60006121848261226d565b915061218f8361226d565b9250827fffffffffffffffffffffffffffffffffffffffffffffffffffffffffffffffff038211156121c4576121c361231c565b5b828201905092915050565b60006121da8261226d565b91506121e58361226d565b9250828210156121f8576121f761231c565b5b828203905092915050565b600061220e8261224d565b9050919050565b60008115159050919050565b60007fffffffff0000000000000000000000000000000000000000000000000000000082169050919050565b600073ffffffffffffffffffffffffffffffffffffffff82169050919050565b6000819050919050565b82818337600083830152505050565b60005b838110156122a4578082015181840152602081019050612289565b838111156122b3576000848401525b50505050565b600060028204905060018216806122d157607f821691505b602082108114156122e5576122e461234b565b5b50919050565b6122f4826123a9565b810181811067ffffffffffffffff821117156123135761231261237a565b5b80604052505050565b7f4e487b7100000000000000000000000000000000000000000000000000000000600052601160045260246000fd5b7f4e487b7100000000000000000000000000000000000000000000000000000000600052602260045260246000fd5b7f4e487b7100000000000000000000000000000000000000000000000000000000600052604160045260246000fd5b6000601f19601f8301169050919050565b7f4552433732313a207472616e7366657220746f206e6f6e20455243373231526560008201527f63656976657220696d706c656d656e7465720000000000000000000000000000602082015250565b7f4552433732313a20746f6b656e20616c7265616479206d696e74656400000000600082015250565b7f4552433732313a207472616e7366657220746f20746865207a65726f2061646460008201527f7265737300000000000000000000000000000000000000000000000000000000602082015250565b7f4552433732313a20617070726f766520746f2063616c6c657200000000000000600082015250565b7f4552433732313a206f70657261746f7220717565727920666f72206e6f6e657860008201527f697374656e7420746f6b656e0000000000000000000000000000000000000000602082015250565b7f4552433732313a20617070726f76652063616c6c6572206973206e6f74206f7760008201527f6e6572206e6f7220617070726f76656420666f7220616c6c0000000000000000602082015250565b7f4552433732313a2062616c616e636520717565727920666f7220746865207a6560008201527f726f206164647265737300000000000000000000000000000000000000000000602082015250565b7f4552433732313a206f776e657220717565727920666f72206e6f6e657869737460008201527f656e7420746f6b656e0000000000000000000000000000000000000000000000602082015250565b7f4552433732313a206d696e7420746f20746865207a65726f2061646472657373600082015250565b7f4552433732313a20617070726f76656420717565727920666f72206e6f6e657860008201527f697374656e7420746f6b656e0000000000000000000000000000000000000000602082015250565b7f4552433732313a207472616e73666572206f6620746f6b656e2074686174206960008201527f73206e6f74206f776e0000000000000000000000000000000000000000000000602082015250565b7f4552433732314d657461646174613a2055524920717565727920666f72206e6f60008201527f6e6578697374656e7420746f6b656e0000000000000000000000000000000000602082015250565b7f4552433732313a20617070726f76616c20746f2063757272656e74206f776e6560008201527f7200000000000000000000000000000000000000000000000000000000000000602082015250565b7f4552433732313a207472616e736665722063616c6c6572206973206e6f74206f60008201527f776e6572206e6f7220617070726f766564000000000000000000000000000000602082015250565b6127a381612203565b81146127ae57600080fd5b50565b6127ba81612215565b81146127c557600080fd5b50565b6127d181612221565b81146127dc57600080fd5b50565b6127e88161226d565b81146127f357600080fd5b5056fea2646970667358221220365bf52d53971084551715058505a78963b67df2c40eb0ad14708a6aea965cdc64736f6c63430008040033",
  "linkReferences": {},
  "deployedLinkReferences": {}
}